:0A0FF600FFFFFFFFFFFFF65AA55EA4
:10034800023C0000C105C101C100C103C102C104D2
:10035800014000014100024600000222000002386C
:1003680000000242000002360000023E0000023A8D
:1003780000000244000001210001240001250001C1
:06038800480002490000DC
:1004AD00758960758DC0758BC0E4F5E7758840D290
:0604BD00ABD2AFD28E228B
:1004750075BE0243AB1043AB0475AD01E4F5ACF5B5
:0C048500BCF5BB85BCAF85BBAEF5BD224D
:10040A00EF64014E7005F5BC75BBE6EF64024E70F1
:10041A000575BC01F5BBEF64034E7004F5BCF5BB72
:0C042A00EF64044E7005F5BC75BB732236
:1004910075901075F21875FA18E4F58075F12575E7
:0C04A100F92543900443F20443FA0422BE
:1003CF00E4FFFEF538F539F522F523EF25E0242675
:1003DF00F8E6FC08E62539F539EC3538F5380FBF66
:1003EF0000010EEF64084E70E2AE38E5397803CEA7
:0A03FF00C313CE13D8F9F5238E22A4
:0104090022D0
:10026300E4FFFEFD7C10FBFAEB25E02426F8E6F51F
:100273008308E6F582D39FE5839E4004AE83AF8275
:10028300C3E5829DE5839C5004AC83AD820BBB0028
:10029300010AEB64084A70D0EF2DFFEE3CC313FE56
:1002A300EF13FFE4FDFCFAFBEB25E02426F8E6F56B
:1002B3008308E6D39FE5839E40050DBD00010C0B2B
:1002C300BB00010AEB64084A70DED3ED9404EC949E
:1002D300004008753A00753B028006753A00753B8D
:0402E30001E4F52518
:0102E70022F4
:10001E00758E7075E50475E669758E1075865A12C3
:10002E000491D294C285C2801204C31204AD12048C
:10003E0075E4F546F54712038F75865A20916C309C
:10004E00001BE4F53AF53BC200C293D294C205C23E
:10005E00047FF47E01120436E4F522F523C285C234
:10006E0080C282D3E5479543E546954240068546D4
:10007E0042854743E5256003120263D3E54394AA04
:10008E00E54294065016E53B6402453A7002D2935F
:10009E00AF3BAE3A12040A43AB80800FE4F5ABD20D
:1000AE0094E53B6402453A7002D29330918BD29420
:1000BE00C293753A00753B037F647E0012043620AE
:1000CE000439200536200033200230D2857FF47E9D
:1000DE00011204361203CFD200C205C285C3E52336
:1000EE0094AAE52294064010D3E52394A8E5229421
:1000FE000C50057541018003E4F541E5417012D2C3
:10010E00807FF47E01120436C2807FF47E011204D9
:10011E00363005030200471203CFD204C3E5239401
:10012E00FDE52294074012D3E52394A8E522940C12
:10013E005007200204D285D282D3E52394CAE52249
:10014E00940C40432002407F647E0012043612035A
:10015E00CFD3E52394CAE522940C402B20022875B8
:10016E00865AC285C282C2807FF47E01120436D2C4
:10017E00857FF47E01120436C282C280D202D285FD
:10018E007FC87E001204362002030200471203CFFE
:10019E00D3E52394CAE522940C5003020047C28093
:1001AE00D2857F647E001204361203CFD3E52394EA
:1001BE00CAE522940C5003020047C285C282D28047
:0901CE00D205C202C2040200477E
:1004C30053FAFE43D60175D28075D440E4F5D522A4
:10038F00E4F546F54743D240E5D25420642070F897
:10039F0053D2DFAFD3F53E8F3FE53FC4F8540FC8BC
:1003AF0068FFE53EC454F048FEE5D4540F7C002F9F
:1003BF00F53FEC3EF53EF546853F47AE46AF47224B
:03001B000202E8F6
:1002E800C0E0C0D075D000C000C004C006C007750B
:1002F800865A12038FE54825E02426F8A64608A664
:1003080047C3E548940874809480500405488023C6
:10031800754800752501C3E54A9404E5496480944D
:1003280080500A054AE54A700A0549800675490061
:10033800754A00D007D006D004D000D0D0D0E03223
:10000300E4FDFCC3ED9FEC9E500D000000000000DA
:070013000DBD00010C80ECA3
:01001A0022C3
:10043600E4FDFCC3ED9FEC9E5016E4FAFB000BBBFB
:1004460000010AEB64284A70F40DBD00010C80E33C
:010456002283
:10045700E4FFFEE4FCFD000DBD00010CED64C84C9B
:0D04670070F40FBF00010EEF64DA4E70E676
:010474002265
:030000000201D723
:0C01D700787FE4F6D8FD75814A02021E14
:1001E30002001EE493A3F8E493A34003F68001F214
:1001F30008DFF48029E493A3F85407240CC8C3331D
:10020300C4540F4420C8834004F456800146F6DFEB
:10021300E4800B0102040810204080900348E47E30
:10022300019360BCA3FF543F30E509541FFEE493E0
:10023300A360010ECF54C025E060A840B8E493A3A7
:10024300FAE493A3F8E493A3C8C582C8CAC583CAD2
:10025300F0A3C8C582C8CAC583CADFE9DEE780BE8A
:01038E00006E
:00000001FF
